:020000040000FA
:100000000C9472000C949A000C949A000C949A0030
:100010000C949A000C949A000C949A000C949A00F8
:100020000C949A000C949A000C949A000C949A00E8
:100030000C949A000C949A000C949A000C949A00D8
:100040000C94FF090C949A000C94CD090C94A70908
:100050000C949A000C949A000C949A000C949A00B8
:100060000C94490A0C949A001F1C1F1E1F1E1F1F70
:100070001E1F1E00000000240027002A00000000B0
:1000800000250028002B0000000000230026002986
:100090000004040404040404040202020202020331
:1000A000030303030301020408102040800102043B
:1000B00008102001020408102000000008000201BE
:1000C0000000030407000000000000000031353A82
:1000D00032343A32350053657020203120323032CC
:1000E0003200AD0B11241FBECFEFD8E0DEBFCDBF75
:1000F00024E0A8E5B2E001C01D92A036B207E1F706
:1001000012E0A0E0B1E0ECE6FDE202C005900D9245
:10011000A835B107D9F710E0C2E7D0E004C02197B5
:10012000FE010E94AE14C137D107C9F70E94610CCD
:100130000C94B4160C9400000895089596E0899FDD
:10014000D0011124A351BC4F90967C936E935F977E
:1001500091E091969C939197E0915A04F0915B0401
:1001600090915904992339F0309751F0811108C0CA
:10017000809109040994309719F05C968C91FACF1C
:100180000895CF92DF92EF92FF920F931F9396E024
:10019000899FF0011124E351FC4F11A2278D30A15A
:1001A0002130310551F178F02230310509F451C088
:1001B0002330310509F452C01F910F91FF90EF9049
:1001C000DF90CF9008956623B9F361E070E00E945C
:1001D0009E002FB7F8948091BE029091BF02A0912B
:1001E000C002B091C1022FBF809345049093460492
:1001F000A0934704B0934804DFCF9FB7F894C09012
:10020000BE02D090BF02E090C002F090C1029FBF3A
:100210000091450410914604209147043091480410
:10022000C01AD10AE20AF30A009157041091580447
:1002300030E020E00C151D052E053F0550F462E06E
:1002400070E01F910F91FF90EF90DF90CF900C9492
:100250009E006111B1CF63E070E0F3CF70E060E029
:10026000F0CFAF92BF92CF92DF92EF92FF920F93B7
:100270001F93CF93DF936C017B018B01040F151F3C
:10028000EB015E01AE18BF08C017D10759F06991A4
:10029000D601ED91FC910190F081E02DC601099508
:1002A000892B79F7C501DF91CF911F910F91FF90B5
:1002B000EF90DF90CF90BF90AF900895FC01538DE9
:1002C000448D252F30E0842F90E0821B930B541730
:1002D00010F0CF96089501970895FC01918D828DBD
:1002E000981761F0A28DAE0FBF2FB11D5D968C9156
:1002F000928D9F5F9F73928F90E008958FEF9FEF95
:100300000895FC01918D828D981731F0828DE80F50
:10031000F11D858D90E008958FEF9FEF0895FC010A
:10032000918D228D892F90E0805C9F4F821B9109D7
:100330008F739927089588E393E00E948F0121E04D
:10034000892B09F420E0822F089580E090E0892B2A
:1003500029F00E949B0181110C9400000895FC017A
:10036000A48DA80FB92FB11DA35ABF4F2C91848D16
:1003700090E001968F739927848FA689B7892C9373
:10038000A089B1898C91837080648C93938D848DC6
:10039000981306C00288F389E02D80818F7D8083C9
:1003A0000895EF92FF920F931F93CF93DF93EC0189
:1003B00081E0888F9B8D8C8D98131AC0E889F9890C
:1003C000808185FF15C09FB7F894EE89FF8960830F
:1003D000E889F98980818370806480839FBF81E090
:1003E00090E0DF91CF911F910F91FF90EF900895D2
:1003F000F62E0B8D10E00F5F1F4F0F731127E02EAD
:100400008C8D8E110CC00FB607FCFACFE889F989E4
:10041000808185FFF5CFCE010E94AF01F1CFEB8D3A
:10042000EC0FFD2FF11DE35AFF4FF0829FB7F894B8
:100430000B8FEA89FB8980818062CFCFCF93DF93D6
:10044000EC01888D8823B9F0AA89BB89E889F989EC
:100450008C9185FD03C0808186FD0DC00FB607FC21
:10046000F7CF8C9185FFF2CF808185FFEDCFCE0154
:100470000E94AF01E9CFDF91CF910895833081F0E1
:1004800028F4813099F08230A9F008958730A9F0DE
:100490008830C9F08430B1F4809180008F7D03C032
:1004A000809180008F7780938000089584B58F7746
:1004B00084BD089584B58F7DFBCF8091B0008F7788
:1004C0008093B00008958091B0008F7DF9CFCF93D5
:1004D000DF93282F30E0F901E754FF4F8491F901B1
:1004E000EB55FF4FD491F901EF56FF4FC491CC2348
:1004F000A1F081110E943E02EC2FF0E0EE0FFF1FF1
:10050000E957FF4FA591B491EC91ED2381E090E084
:1005100009F480E0DF91CF91089580E090E0FACF78
:10052000862F0C9467021F93CF93DF93282F30E020
:10053000F901E754FF4F8491F901EB55FF4FD49136
:10054000F901EF56FF4FC491CC23A9F0162F81116A
:100550000E943E02EC2FF0E0EE0FFF1FE358FF4F2A
:10056000A591B4918FB7F894EC91111108C0D09572
:10057000DE23DC938FBFDF91CF911F910895DE2B97
:10058000F8CF862F642F0C949302CF93DF9390E0E3
:10059000FC01EB55FF4F24918F569F4FFC01849136
:1005A0008823C9F090E0880F991FFC01ED58FF4F98
:1005B000A591B491FC01E358FF4FC591D49161110D
:1005C0000DC09FB7F8948C91209582238C938881DD
:1005D000282328839FBFDF91CF910895623051F483
:1005E0009FB7F8943C91822F809583238C93E88168
:1005F0002E2BEFCF8FB7F894EC912E2B2C938FBF2F
:10060000EACF862F642F0C94C5023FB7F8948091EF
:10061000A1029091A202A091A302B091A40226B5DA
:10062000A89B05C02F3F19F00196A11DB11D3FBF2A
:10063000BA2FA92F982F8827BC01CD01620F711DF9
:10064000811D911D42E0660F771F881F991F4A95F3
:10065000D1F708958F929F92AF92BF92CF92DF927F
:10066000EF92FF924B015C010E9405036B017C013C
:100670000E9405036C197D098E099F09683E73402D
:1006800081059105A8F321E0821A9108A108B1081B
:1006900088EEC80E83E0D81EE11CF11C8114910481
:1006A000A104B10429F7FF90EF90DF90CF90BF90A5
:1006B000AF909F908F900895EF92FF920F931F93AA
:1006C000CF93DF93EC0169813881432F50E02A8179
:1006D000822F90E0E8E6F0E021E0261730F47491F4
:1006E000870F911D2F5F3196F8CF633018F033706C
:1006F00009F401966DE671E0469F9001479F300D29
:10070000569F300D1124215031094D5F5F4F569592
:10071000479556954795240F351F280F391FA8E197
:10072000B0E00E94C4132B817B018C01E20EF11C0E
:10073000011D111DA8019701ACE3B0E00E948213D6
:100740002C817B018C01E20EF11C011D111DA80101
:1007500097010E948213AB01BC019D81892F90E01B
:10076000B0E0A0E080589C4BA249B74C8A019B01A5
:10077000080F191F2A1F3B1FC901B801DF91CF9134
:100780001F910F91FF90EF900895FC01908190537D
:100790009A3008F090E0818180532AE0929F800D8A
:1007A00011240895089520917D02260F3327331FC9
:1007B00021323105ECF420910E03FC0190E080E041
:1007C000243069F082E00895A0917D022191AC016E
:1007D000435A5D4FA40FB52FB11D2C930196861778
:1007E00098F380917D02680F60937D0280E0089508
:1007F00081E0089510920E0381E080930D03109222
:10080000E80261E082E10E94930261E083E10E94DC
:100810009302E9EBF0E080818E7F808380818D7F81
:10082000808388E48093B80085E48093BC000895B9
:100830001092C7021092C60210921503109237034D
:100840000E94FA038CE990E09093C5028093C40261
:100850008DE990E09093C3028093C2020895CF93F4
:10086000DF9391E090935C028823B9F0C091B800C7
:10087000D091BA008091BC008A7B8093BC0060E07C
:1008800082E10E94930260E083E10E9493020E9451
:10089000FA03D093BA00C093B800DF91CF910895C6
:1008A0008F929F92AF92BF92CF92DF92EF92FF9280
:1008B0000F931F93CF93DF93D0913703D13208F07A
:1008C000D7C0182FC09136030E9405036B017C012D
:1008D00080910E0381116BC082E080930E03109310
:1008E0000D038FEF80930C0310920B03D0930A0338
:1008F000A6E1B3E0EAEEF2E080E0D81391C01092F6
:10090000E9028091E902CC0FC82BC093E9028091E3
:10091000E802813009F088C01092E8020E940503C5
:100920006B017C018091E9028093BB0080911003F0
:1009300090911103A0911203B0911303892B8A2B7C
:100940008B2BA1F00E94050300911003109111035D
:1009500020911203309113036C197D098E099F09B0
:10096000061717072807390708F442C08091BC0012
:1009700083FDD8CF85EC8093BC000E9405036B01FA
:100980007C0180910E03823009F450C080910C03E9
:100990008F3F09F46FC080910C03803209F46CC062
:1009A00080910C03803309F469C084E026C08091F3
:1009B000100390911103A0911203B0911303892B9E
:1009C0008A2B8B2B09F484CF0E940503809010039F
:1009D00090901103A0901203B09013036C197D093D
:1009E0008E099F0986169706A806B90608F070CFEB
:1009F00080910F030E942F0485E01092150310923E
:100A0000370310921403DF91CF911F910F91FF9044
:100A1000EF90DF90CF90BF90AF909F908F90089510
:100A20009D9191938F5F69CF85EEA5CF8091100343
:100A300090911103A0911203B0911303892B8A2B7B
:100A40008B2B09F49ECF0E94050300911003109197
:100A5000110320911203309113036C197D098E0943
:100A60009F09061717072807390708F08ACFC0CF54
:100A700081E0C3CF80E0C1CF82E0BFCF83E0BDCFB4
:100A80001F93CF93DF93EA01122FDC0111968D9112
:100A90009C91DC01ED91FC910280F381E02D0995A0
:100AA000C817D90729F4812F0E94500491E08111C1
:100AB00090E0892FDF91CF911F910895CF93DF931D
:100AC000EC018B818823A1F0888191E0909314033D
:100AD00080933603109215031092370381E00E9431
:100AE000500491E0811190E0892FDF91CF9108951A
:100AF0000E94180481E08B83CE010E945E05982F2E
:100B00008111E2CFF1CF0895E091C7028091C60232
:100B1000E81730F4F0E0E853FD4F808190E008954D
:100B20008FEF9FEF08959091C7028091C6022FEF3B
:100B30003FEF981748F4E92FF0E0E853FD4F20818C
:100B400030E09F5F9093C702C90108958091C6026B
:100B50009091C702891B990B0895CF92DF92EF9273
:100B6000FF920F931F93CF93DF937C01CB018A01F8
:100B700020911403222389F0EB016B01C40ED51ED2
:100B8000CC15DD0569F06991D701ED91FC910190DB
:100B9000F081E02DC7010995F3CF642F0E94D303A4
:100BA000C801DF91CF911F910F91FF90EF90DF90DF
:100BB000CF900895CF93DF931F92CDB7DEB76983AF
:100BC000209114032223F9F020913703203258F0AA
:100BD00021E030E0FC013383228390E080E00F903D
:100BE000DF91CF91089580911503E82FF0E0EA5E40
:100BF000FC4F998190838F5F809315038093370317
:100C000081E090E0ECCF61E0CE0101960E94D30339
:100C1000F7CFFC01248131E0309314032093360395
:100C200010921503109237038385682B85ED93E0AE
:100C30000E94DA0581E00C94500490E080E0089571
:100C40002F923F924F925F926F927F928F929F92DC
:100C5000AF92BF92CF92DF92EF92FF920F931F93CA
:100C6000CF93DF935C011B016A01F12CE12CD501CC
:100C700014968D919C9186010E191F09801791077A
:100C800008F48C01F501D0810E9405032B013C0181
:100C900080910E03811172C0C02F013208F0C0E2B2
:100CA000F1E0F0930E0321E0C601801B910BE816E2
:100CB000F90608F420E020930D038FEF80930C03D6
:100CC00010920B038C0F80930A03A1E0A093E9021A
:100CD0008091E902DD0FD82BD093E9028091E802E0
:100CE000813009F090C01092E8020E9405032B01A8
:100CF0003C018091E9028093BB00809110039091A8
:100D00001103A0911203B0911303892B8A2B8B2B13
:100D1000A1F00E940503209110033091110340912E
:100D20001203509113036419750986099709261750
:100D300037074807590708F442C08091BC0083FD7B
:100D4000D8CFB5ECB093BC000E9405032B013C0149
:100D500080910E03813009F45AC080910B038C17E7
:100D600010F4C0910B03AAEEB2E0E8ECF2E080E0F0
:100D70008C1751F19D9191938F5FFACF8091100361
:100D800090911103A0911203B0911303892B8A2B28
:100D90008B2B09F47DCF0E94050320911003309125
:100DA00011034091120350911303641975098609C8
:100DB0009709261737074807590708F069CF809128
:100DC0000F030E942F04C0E01092C702C093C60216
:100DD000C017110609F057C041018E0C9F1CE40199
:100DE000CE01881999098017910798F5D5011196B8
:100DF0008D919C91DC01ED91FC910284F385E02DB5
:100E000009958993EDCFE5EEE093BC009DCF8091ED
:100E1000100390911103A0911203B0911303892B39
:100E20008A2B8B2B09F494CF0E9405032091100389
:100E30003091110340911203509113036419750905
:100E400086099709261737074807590708F080CF02
:100E5000B6CFE00EF11EEC14FD0408F408CF81E0DB
:100E6000DF91CF911F910F91FF90EF90DF90CF9086
:100E7000BF90AF909F908F907F906F905F904F90BA
:100E80003F902F90089580E0EBCF0F931F93CF9367
:100E90008C01C62F0E9409066C2F6460C8010E9455
:100EA00009066C2F6B7FC8010E94090683EC90E055
:100EB0000197F1F7CF911F910F9108950F931F9311
:100EC000CF93DF938C01D62FC42F607F642B0E94B9
:100ED000450780E1D89FB00111246C2BC801DF9138
:100EE000CF911F910F910C94450740E061E081EE96
:100EF00093E00E945E078BE39FE10197F1F708956D
:100F0000CF93DF93CDB7DEB728970FB6F894DEBF47
:100F10000FBECDBF98E0E9E1F1E0DE01119601904E
:100F20000D929A95E1F79091E903981710F48FEFDD
:100F3000890F90E0880F991F21E030E02C0F3D1FB2
:100F4000820F931FFC016081606840E081EE93E0B6
:100F500028960FB6F894DEBF0FBECDBFDF91CF91BC
:100F60000C945E0741E00E945E0781E090E00895E6
:100F7000FB0101900020E9F73197AF01461B570BA9
:100F8000DC01ED91FC910280F381E02D09948F92B8
:100F90009F92AF92BF92EF92FF920F931F93CF93C6
:100FA000DF93CDB7DEB7A1970FB6F894DEBF0FBEC3
:100FB000CDBF7C01FA01CB0119A2223008F42AE04E
:100FC0008E010F5D1F4F822E912CB12CA12CBF01E1
:100FD000A50194010E948C14F901CA016A300CF534
:100FE000605DD8016E938D01232B242B252B79F77F
:100FF00090E080E0109721F0BD01C7010E94B80782
:10100000A1960FB6F894DEBF0FBECDBFDF91CF9192
:101010001F910F91FF90EF90BF90AF909F908F9096
:101020000895695CDECFCF92DF92EF92FF926B0161
:101030007C0141E06DE281EE93E00E945E0744276F
:101040005527BA014C195D096E097F092AE081EE26
:1010500093E00E94C7070196FF90EF90DF90CF903A
:101060000895AC01990F660B770B77FF04C0CB0195
:10107000BA010C9413082AE081EE93E00C94C707A0
:10108000CF93DF93BC0188E393E00E94B807EC01A3
:1010900065E671E088E393E00E94B8078C0F9D1F1E
:1010A000DF91CF9108950C94B80785ED8093BC0033
:1010B0008091100390911103A0911203B09113033A
:1010C0000796A11DB11D23E0B695A7959795879525
:1010D0002A95D1F72091BC0024FD03C010920E0385
:1010E0000895409110035091110360911203709183
:1010F0001303452B462B472B69F30097A105B10538
:1011000041F025E32A95F1F700000197A109B10903
:10111000E1CF80910F030C942F048F929F92AF9296
:10112000BF92CF92DF92EF92FF920F931F9360E0F6
:1011300088E00E9493028BE090E00197F1F761E074
:1011400088E00E94930283E290E00197F1F760E06B
:1011500088E00E949302ECEAF0E06491E8E9F0E0B4
:10116000E491F0E0EE0FFF1FE957FF4F8591949156
:1011700000E412E42FE030E0462F0E94680B611576
:1011800071058105910529F06F5F7F4F8F4F9F4F4C
:101190009F700E94651226E933E44BE85CE30E94ED
:1011A000C412609358027093590280935A0290932C
:1011B0005B0268E671E088E393E00E945308C09008
:1011C0005802D0905902E0905A02F0905B02A701B9
:1011D0009601C701B6010E947B1463E771E081119B
:1011E0001AC046015701E894B7F82FEF3FEF4FE7D9
:1011F0005FE7C501B4010E947B1481112AC02FEF63
:101200003FEF4FE75FE7C501B4010E945E12181679
:1012100004F567E771E088E393E00E94B8078FE781
:1012200091E00E94400860915802709159028091AB
:101230005A0290915B020E944014CB011F910F91C2
:10124000FF90EF90DF90CF90BF90AF909F908F90E6
:1012500008952FEF3FEF4FE75FE4C701B6010E940B
:10126000761418161CF46BE771E0D5CF2FEF3FEF23
:101270004FE75FECC701B6010E945E1287FDF3CF16
:1012800020E030E0A901C701B6010E945E1287FF8D
:1012900009C06DE288E393E00E94D101F7FAF0946F
:1012A000F7F8F0942AE037ED43EA5BE3C701B601B3
:1012B0000E94D4134B015C010E9447146B017C0116
:1012C0000E9463129B01AC01C501B4010E94D313BB
:1012D0004B015C012AE0B701A60188E393E00E947C
:1012E000C7076EE288E393E00E94D10120E030E07E
:1012F00040E251E4C501B4010E94C4124B015C01FB
:101300000E9447146B01F12CE12C2AE0B701A601E1
:1013100088E393E00E94C707C701B6010E946312E9
:101320009B01AC01C501B4010E94D31320E030E061
:1013300040E251E40E94C4120E944714AB0170E0E5
:1013400060E02AE088E393E00E94C70768CF1F921D
:101350000F920FB60F9211242F933F934F935F93E9
:101360006F937F938F939F93AF93BF93EF93FF936D
:1013700088E393E00E94AF01FF91EF91BF91AF919D
:101380009F918F917F916F915F914F913F912F919D
:101390000F900FBE0F901F9018951F920F920FB6CF
:1013A0000F9211242F938F939F93EF93FF93E091CC
:1013B0004803F09149038081E0914E03F0914F037F
:1013C00082FD1BC09081809151038F5F8F732091AC
:1013D0005203821741F0E0915103F0E0E85CFC4FCA
:1013E000958F80935103FF91EF919F918F912F9152
:1013F0000F900FBE0F901F9018958081F4CF1F9211
:101400000F920FB60F9211242F933F938F939F93B8
:10141000AF93BF938091BE029091BF02A091C00292
:10142000B091C1023091A00223E0230F2D3758F56F
:101430000196A11DB11D2093A0028093BE0290933E
:10144000BF02A093C002B093C1028091A10290910B
:10145000A202A091A302B091A4020196A11DB11D08
:101460008093A1029093A202A093A302B093A4023E
:10147000BF91AF919F918F913F912F910F900FBE90
:101480000F901F90189526E8230F0296A11DB11DFD
:10149000D2CF1F920F920FB60F9211242F933F932A
:1014A0004F935F936F937F938F939F93AF93BF936C
:1014B000EF93FF938091B900887F803609F44AC08A
:1014C000F0F5883209F4A7C018F5803109F49BC003
:1014D000B8F4882309F4F9C0883009F494C0FF9166
:1014E000EF91BF91AF919F918F917F916F915F919C
:1014F0004F913F912F910F900FBE0F901F90189515
:10150000883109F488C0803251F780930C0314C0ED
:10151000803409F49DC040F48033B9F38833F9F680
:1015200080930C0385ECB0C0803509F485C0883504
:1015300009F496C0883499F60E945508D0CF8839AE
:1015400009F48CC038F5883729F050F4883611F04A
:10155000803729F683E080930E0310929F0257C0D4
:10156000883809F47BC0803919F0803809F0B7CF8A
:1015700080919F02803208F071C0E0919F0281E06B
:101580008E0F80939F028091BB00F0E0E158FD4FE9
:1015900080833DC0803B39F0E0F4803A09F479C0A3
:1015A000883A09F09CCF84E080930E0310927E026B
:1015B00010927D02E091C402F091C50209958091DC
:1015C0007D0281110FC081E080937D0210925D0247
:1015D00009C0803C09F4A6CF883C09F4A3CF883B1E
:1015E00009F07DCFE0917E0281E08E0F80937E0234
:1015F000F0E0E35AFD4F80818093BB0090917E0222
:1016000080917D0229C08091E9028093BB0085EC26
:101610008093BC0064CF90910B0380910A039817CC
:1016200058F5E0910B0381E08E0F80930B03F0E0FF
:10163000E651FD4F8081E9CFE0910B0381E08E0FF1
:1016400080930B038091BB00F0E0E651FD4F808357
:1016500090910B0380910A039817C8F285E8D8CFC0
:10166000E0910B0381E08E0F80930B038091BB0010
:10167000F0E0E651FD4F808380910D0381115CCF36
:1016800081E08093E80284EA8093BC0010920E030C
:1016900026CF85EC8093BC0010920E0380919F02B0
:1016A000803230F4E0919F02F0E0E158FD4F10826B
:1016B00060919F0270E0E091C202F091C3028FE757
:1016C00092E0099510929F020ACF10920C0334CF3A
:1016D000CF92DF92EF92FF920F931F93E82FF92F93
:1016E00005C0015011092109310961F1908196234A
:1016F0009417B9F305C0015011092109310911F1FD
:10170000908196239413F7CFC12CD12CE12CF12C8E
:101710000AC08FEFC81AD80AE80AF80A0C151D0586
:101720002E053F0579F080818623841791F36C2D77
:101730007D2D8E2D9F2D1F910F91FF90EF90DF90AB
:10174000CF90089560E070E080E090E01F910F91ED
:10175000FF90EF90DF90CF90089510923B0310928E
:101760003A0388EE93E0A0E0B0E080933C039093CE
:101770003D03A0933E03B0933F032FE231E030934B
:1017800039032093380325EC30E030934503209350
:10179000440324EC30E0309347032093460320ECCD
:1017A00030E0309349032093480321EC30E030933C
:1017B0004B0320934A0322EC30E030934D032093F7
:1017C0004C0326EC30E030934F0320934E031092ED
:1017D000510310925203109253031092540310922B
:1017E000D8031092D7038093D9039093DA03A09380
:1017F000DB03B093DC0381E491E09093D603809304
:10180000D5031092EF031092F3031092F20310929B
:10181000F4038FE591E09093EE038093ED03E9E00C
:10182000F4E01082148213821582369684E0E53447
:10183000F807B9F783E091E09093500480934F0448
:1018400080E091E0909352048093510484E080936F
:10185000530493E09093540427E031E030934E0416
:1018600020934D042AE030E0309356042093550431
:1018700024EF31E0309358042093570410925B0416
:1018800010925A041092490410924A0410924B0488
:1018900010924C04109259041092E4031092E30346
:1018A00023E531E03093E2032093E10390E290934B
:1018B000E50394E19093EA038093EB031092EC0329
:1018C0000895CF93DF93CDB7DEB769970FB6F8943D
:1018D000DEBF0FBECDBF789484B5826084BD84B571
:1018E000816084BD85B5826085BD85B5816085BD1B
:1018F00080916E00816080936E00109281008091D3
:10190000810082608093810080918100816080935A
:101910008100809180008160809380008091B1007F
:1019200084608093B1008091B00081608093B000AA
:1019300080917A00846080937A0080917A0082603E
:1019400080937A0080917A00816080937A00809100
:101950007A00806880937A001092C100E091480379
:10196000F091490382E08083E0914403F0914503C4
:101970001082E0914603F09147038FEC8083109230
:101980005003E0914C03F0914D0386E08083E09199
:101990004A03F0914B03808180618083E0914A0388
:1019A000F0914B03808188608083E0914A03F0913D
:1019B0004B03808180688083E0914A03F0914B0360
:1019C00080818F7D80830E9418041092E6038091AD
:1019D000EB03823018F098E09093E6038093E903DC
:1019E00062E370E080E090E00E942A036091EC03E3
:1019F00081EE93E00E94090668EE73E080E090E0DB
:101A00000E942A0360E381EE93E00E9445075BE4B5
:101A1000E52E56E4F52EC7010197F1F760E381EE5C
:101A200093E00E944507C7010197F1F760E381EE5B
:101A300093E00E94450783E592E00197F1F760E2A9
:101A400081EE93E00E9445076091E603606240E00A
:101A500081EE93E00E945E0784E08093E70340E01C
:101A60006CE081EE93E00E945E070E94750782E0C1
:101A70008093E80340E066E081EE93E00E945E0719
:101A800040E062E081EE93E00E945E078BE39FE11D
:101A90000197F1F788E08093EC0360E081EE93E03A
:101AA0000E94090661E08CE00E94C50260E08CE0C3
:101AB0000E94930261E088E00E94C50260E087E036
:101AC0000E94C5026BE2C62E61E0D62E71E2E72EBF
:101AD00071E0F72EF7018081F2E0EF0EF11C61E07A
:101AE0000E94C502CE14DF04A9F783E891E00E94AA
:101AF000400880E00E94800769E971E081EE93E090
:101B00000E94530881E00E94800769E871E081EE3D
:101B100093E00E94530860ED77E080E090E00E943F
:101B20002A030E9475078091BB029091BC02009726
:101B300011F00E94501586E090E00E94B4147C01E0
:101B400088E6F701808385ED93E092838183138299
:101B500080E290E095838483F092BC02E092BB0225
:101B60000E94180401E0F7010383C7010E945E058B
:101B700081110AC087EA91E00E94400888E393E05F
:101B80000E941E020E949616198E8091BB029091AF
:101B9000BC02FC0124813581232B89F02081009334
:101BA000140320933603109215031092370321E09B
:101BB00041E050E0BE01675E7F4F0E94400541E07A
:101BC00050E0CE0101963C01BC018091BB02909196
:101BD000BC020E942006898190E0880F892F881F0F
:101BE000990B892B09F4A8C08FEB91E00E94400863
:101BF0004BE050E066ED70E0C3010E942012CE0180
:101C00000A960E94C503082FE981E154E33118F5D3
:101C10000E2E000CFF0BE15FF14F0C94AE14710F10
:101C20002B0E2B0E850F2B0E870F2B0E2B0E2B0E34
:101C3000220E2B0E2B0E780F830F810F2B0E2B0EE7
:101C40002B0E7F0F8A8111E0813629F08B8116E0FF
:101C50008E3609F017E0CE0105960E94C503F82ED6
:101C600048E050E06DEC70E0C3010E942012C30117
:101C70000E94C503E82ECE0104960E94C503D82E0B
:101C8000CE0107960E94C503382F86E0F30111921A
:101C90008A95E9F72AE0832F622F0E948014982FFB
:101CA000880F890F880F830F8A838D2D0E948014DF
:101CB000982F880F890F880F8D0D8B838E2D0E9492
:101CC0008014982F880F890F880F8E0D8C838F2D8D
:101CD0000E948014982F880F890F880F8F0D8E8394
:101CE000812F0E948014982F990F890F880F180F49
:101CF0001F83802F0E948014982F880F890F880FD0
:101D0000800F88878091BB029091BC02FC012481E6
:101D100035812830310580F0208131E03093140383
:101D200020933603109215031092370321E048E008
:101D300050E0B3010E94400539E2232E34E0332EF7
:101D400088E393E00E948F0118161906ACF488E32B
:101D500093E00E946D01182F8093BD02682F88E3E5
:101D600093E00E94D10161E0113619F0123621F49E
:101D700060E085E00E94930219820091BB021091FD
:101D8000BC02F80184819581892BC9F0808191E0A2
:101D90009093140380933603109215031092370327
:101DA00020E041E050E0B301C8010E9440058823D3
:101DB00031F047E050E0B301C8010E94200649819C
:101DC0004F775A816B817D81EE818F81282F30E0A2
:101DD000F4E035952795FA95E1F7922F990F990F31
:101DE000291B220F280F2B8B8E2F90E0A4E09595B6
:101DF0008795AA95E1F7982F990F990F891B880F5E
:101E00008E0F8C8B272F30E0B4E035952795BA954F
:101E1000E1F7822F880F880F281B220F270F2D8BA9
:101E2000862F90E014E0959587951A95E1F7982F05
:101E3000990F990F891B880F860F8E8B252F30E005
:101E400004E0359527950A95E1F7822F880F880FD2
:101E5000281B220F250F2F8B842F90E024E09595CF
:101E600087952A95E1F7982F990F990F891B880F6D
:101E7000840F888F81E0809359048FB7F894409144
:101E8000BE025091BF026091C0027091C1028FBF2B
:101E90008091490490914A04A0914B04B0914C0464
:101EA000481B590B6A0B7B0B80915504909156048B
:101EB000B0E0A0E084179507A607B70708F06AC14D
:101EC00010E080915304181720F5E0914F04F09131
:101ED0005004E10FF11D62E080810E94C5021F5F86
:101EE000F0CF8B8114E0823709F4B5CE18E0B3CE81
:101EF0008B8113E0823709F4AECE15E0ACCE19E049
:101F0000AACE1AE0A8CE1BE0A6CE1CE0A4CE12E01A
:101F1000A2CE912C80915404981608F063C0E92C4D
:101F2000F12CE0915104F0915204EE0DFF1D61E09F
:101F300080810E94C502E0915104F0915204EE0D9F
:101F4000FF1D60E080810E94930281E090E0A0E0AC
:101F5000B0E0092C04C0880F991FAA1FBB1F0A9468
:101F6000D2F75C016C01C094D094812C8091530411
:101F7000881608F5082D10E0E0914F04F091500408
:101F8000E00FF11F80810E9467020C5F1F4F000F5E
:101F9000111FF801E351FC4F892B41F4808191819D
:101FA0008A299B29918380838394E0CF80819181CA
:101FB0008C219D21F7CFE0915104F0915204EE0D58
:101FC000FF1D61E080810E949302809151049091F5
:101FD0005204E80EF91E60E0F70180810E94C502FC
:101FE000939498CF0DEE13E07801F701878D90A1BF
:101FF000892B31F4148E4FEF5FEF568F458F11A26E
:1020000056E0E50EF11C2E143F0479F7D12C809197
:102010005304D81608F053C0C12CAD2CB12CAA0C17
:10202000BB1CC5018B509C4F5C0120915404C2160F
:1020300008F043C0F501608171810C2C02C07695D7
:1020400067950A94E2F7D29E900111242C0D311D60
:10205000EDEEF3E080E0458D568D2417350709F449
:10206000EDC18F5F36968A30B1F760FF24C0EDEE88
:10207000F3E090E080E0448D411118C0E0914D0400
:10208000F0914E04E20FF31F408156E0589FF0019B
:10209000599FF00D1124E351FC4F448F368F258F4B
:1020A00010A2178E61E00E94C10005C0019636960D
:1020B0008A30910501F7C394B8CFD394A8CF80E0BC
:1020C000F80191A19111892F0A5F1F4FE016F106C7
:1020D000B9F79FB7F8944091BE025091BF0260914A
:1020E000C0027091C1029FBF4093490450934A04BB
:1020F00060934B0470934C04882309F44BC04090C8
:102100000E04442009F446C080910C0490910D0403
:10211000019709F03FC05090090451103EC00E9441
:102120008D08843691050CF075C131E2E32E31E063
:10213000F32E10E000E0F701D080F2E0EF0EF11C8A
:102140008D2D0E946702892B09F071C178014FEF34
:10215000E41AF40A0E948D08843691050CF01CC123
:1021600080E00E94800761E372E081EE93E00E94CC
:10217000530881E00E94800762E472E081EE93E000
:102180000E945308C7010E94310861E08D2D0E9412
:102190009302E0CF10925904C2CF652D88E393E0FB
:1021A0000E94D10165E671E088E393E00E94B807E0
:1021B000B12CA12C4FEFA41AB40A4AE0B301C50117
:1021C0000E942912F30101900020E9F731978F0155
:1021D00006191709B8016F5F7F4F90E080E00E94F9
:1021E000D9157C01009739F1FC011082B3010E94DE
:1021F000AD1659821A82F30101900020E9F7319758
:102200004F0186189708B4016F5F7F4F90E080E020
:102210000E94D9156C01009789F0FC011082B3016E
:102220000E94AD160815190509F48CC0912CC60141
:102230000E94501508C010E000E0DBCF9924939471
:10224000012B09F0912CE114F10419F0C7010E944F
:102250005015992009F470C0F501EE0FFF1FE15EE3
:10226000FE4F1081812F0E946702019709F089C0FB
:102270000E94750760E0812F0E949302CE01439671
:102280000E945C03F501EE0FFF1FEE0FFF1FED55DF
:10229000FD4F0081118122813381601B710B820B04
:1022A000930BF5E0F69F9001F79F300D11243093CA
:1022B000A6022093A50280E00E9480076FEE71E0E5
:1022C00081EE93E00E94530881E00E948007809194
:1022D000A5029091A6020E9431086FEE71E088E39A
:1022E00093E00E9453084091A5025091A602052E4A
:1022F000000C660B770B77FF3EC0CB01BA010E9442
:10230000130865E671E081EE93E00E94B80782E071
:102310000E94800765E072E081EE93E00E9453081E
:1023200085E092E00E94400868EE73E080E090E073
:102330000E942A030E947507F5E0AF16B10409F068
:1023400039CFEDCEE114F10479F4012B91F0F601CF
:10235000808190E099249394892B09F0912CC114E9
:10236000D10409F064CF6FCFB701C6010E94A41653
:10237000F1CF942C5CCF2AE081EE93E00E94C70756
:10238000C0CF0E94750766E172E081EE93E00E9483
:10239000530886E192E0C6CFCE0143960E945C03CB
:1023A000000F111F000F111FF801E955FD4F608349
:1023B0007183828393830E94750782E00E94670283
:1023C000019741F583E00E946702019719F584E0C7
:1023D0000E9467020197F1F485E00E94670201976D
:1023E000C9F486E00E9467020197A1F488E492E0B4
:1023F0000E9440080E94750768E472E081EE93E055
:102400000E94530864EF71E080E090E00E942A038C
:102410000E94750780E090E0892B09F491CC0E941E
:102420009B01882309F48CCC0E94000089CC0F5FAB
:102430001F4F0530110509F07ECEBFCF617033CE3E
:10244000FB01DC0102C005900D9241505040D8F7CD
:102450000895BB274A3031F4992322F4BDE29095C8
:1024600081959F4F0C943512BB27FB015527AA2756
:10247000880F991FAA1FA41710F0A41B8395505111
:10248000B9F7A05DAA3308F0A95DA193009779F789
:10249000B111B1931192CB010C944E12DC01FC01ED
:1024A000672F71917723E1F7329704C07C916D9388
:1024B00070836291AE17BF07C8F308950E94A012FF
:1024C00008F481E00895E89409C097FB3EF49095E4
:1024D0008095709561957F4F8F4F9F4F9923A9F0FD
:1024E000F92F96E9BB279395F6958795779567958C
:1024F000B795F111F8CFFAF4BB0F11F460FF1BC0D0
:102500006F5F7F4F8F4F9F4F16C0882311F096E962
:1025100011C0772321F09EE8872F762F05C0662310
:1025200071F096E8862F70E060E02AF09A95660FC9
:10253000771F881FDAF7880F9695879597F9089582
:10254000990F0008550FAA0BE0E8FEEF16161706C4
:10255000E807F907C0F012161306E407F50798F02C
:10256000621B730B840B950B39F40A2661F0232B45
:10257000242B252B21F408950A2609F4A140A695C1
:102580008FEF811D811D08950E94D7120C9448136E
:102590000E943A1338F00E94411320F0952311F065
:1025A0000C9431130C94371311240C947C130E9457
:1025B000591370F3959FC1F3950F50E0551F629F1B
:1025C000F001729FBB27F00DB11D639FAA27F00D8C
:1025D000B11DAA1F649F6627B00DA11D661F829FB3
:1025E0002227B00DA11D621F739FB00DA11D621F98
:1025F000839FA00D611D221F749F3327A00D611DB5
:10260000231F849F600D211D822F762F6A2F112496
:102610009F5750409AF0F1F088234AF0EE0FFF1FC9
:10262000BB1F661F771F881F91505040A9F79E3F20
:10263000510580F00C9431130C947C135F3FE4F34C
:10264000983ED4F3869577956795B795F795E79576
:102650009F5FC1F7FE2B880F911D9695879597F97F
:10266000089597F99F6780E870E060E008959FEF14
:1026700080EC089500240A94161617061806090619
:10268000089500240A9412161306140605060895E8
:10269000092E0394000C11F4882352F0BB0F40F470
:1026A000BF2B11F460FF04C06F5F7F4F8F4F9F4FB0
:1026B000089557FD9058440F551F59F05F3F71F032
:1026C0004795880F97FB991F61F09F3F79F0879599
:1026D0000895121613061406551FF2CF4695F1DF22
:1026E00008C0161617061806991FF1CF86957105B2
:1026F000610508940895E894BB2766277727CB01E6
:1027000097F908950E94C413A59F900DB49F900D52
:10271000A49F800D911D112408952F923F924F92F6
:102720005F926F927F928F929F92AF92BF92CF9261
:10273000DF92EF92FF920F931F93CF93DF93CDB76A
:10274000DEB7CA1BDB0B0FB6F894DEBF0FBECDBFE2
:1027500009942A88398848885F846E847D848C84B3
:102760009B84AA84B984C884DF80EE80FD800C81BC
:102770001B81AA81B981CE0FD11D0FB6F894DEBF9F
:102780000FBECDBFED010895A29FB001B39FC00160
:10279000A39F700D811D1124911DB29F700D811D8D
:1027A0001124911D08955058BB27AA270E94EB13AE
:1027B0000C9448130E943A1338F00E94411320F001
:1027C00039F49F3F19F426F40C9437130EF4E09576
:1027D000E7FB0C943113E92F0E94591358F3BA17F1
:1027E000620773078407950720F079F4A6F50C9427
:1027F0007B130EF4E0950B2EBA2FA02D0B01B9011F
:1028000090010C01CA01A0011124FF27591B99F066
:10281000593F50F4503E68F11A16F040A22F232F72
:10282000342F4427585FF3CF469537952795A795C2
:10283000F0405395C9F77EF41F16BA0B620B730B69
:10284000840BBAF09150A1F0FF0FBB1F661F771FDA
:10285000881FC2F70EC0BA0F621F731F841F48F48F
:10286000879577956795B795F7959E3F08F0B0CF18
:102870009395880F08F09927EE0F979587950895FF
:102880000E9447146894B1110C947C1308950E941F
:10289000611388F09F5798F0B92F9927B751B0F07E
:1028A000E1F0660F771F881F991F1AF0BA95C9F7D4
:1028B00014C0B13091F00E947B13B1E008950C94E4
:1028C0007B13672F782F8827B85F39F0B93FCCF397
:1028D000869577956795B395D9F73EF49095809551
:1028E000709561957F4F8F4F9F4F08950E94A01262
:1028F00008F48FEF08950E94A012880B990B089599
:10290000991B79E004C0991F961708F0961B881F41
:102910007A95C9F780950895A1E21A2EAA1BBB1BD0
:10292000FD010DC0AA1FBB1FEE1FFF1FA217B3079B
:10293000E407F50720F0A21BB30BE40BF50B661FB1
:10294000771F881F991F1A9469F760957095809575
:1029500090959B01AC01BD01CF010895EE0FFF1FC3
:102960000590F491E02D09940F931F93CF93DF937B
:102970008230910510F482E090E0E0915E04F091E5
:102980005F0430E020E0B0E0A0E0309799F421153A
:10299000310509F44AC0281B390B24303105D8F51C
:1029A0008A819B816115710589F1FB019383828383
:1029B000FE0111C0408151810281138148175907DE
:1029C000E0F04817590799F4109761F012960C93AC
:1029D000129713961C933296CF01DF91CF911F91DE
:1029E0000F91089500935E0410935F04F4CF2115B6
:1029F000310551F04217530738F0A901DB019A0164
:102A0000BD01DF01F801C1CFEF01F9CF90935F0461
:102A100080935E04CDCFFE01E20FF31F819391936B
:102A20002250310939832883D7CF20915C0430911B
:102A30005D04232B41F42091150130911601309350
:102A40005D0420935C042091130130911401211541
:102A5000310541F42DB73EB740911701509118014F
:102A6000241B350BE0915C04F0915D04E217F30741
:102A7000A0F42E1B3F0B2817390778F0AC014E5FEE
:102A80005F4F2417350748F04E0F5F1F50935D04CA
:102A900040935C04819391939FCFF0E0E0E09CCF62
:102AA000CF93DF930097E9F0FC01329713821282F3
:102AB000A0915E04B0915F04ED0130E020E010973A
:102AC000A1F420813181820F931F20915C04309109
:102AD0005D042817390709F061C0F0935D04E093A5
:102AE0005C04DF91CF910895EA01CE17DF07E8F586
:102AF0004A815B819E0141155105B1F7E901FB83D4
:102B0000EA8349915991C40FD51FEC17FD0761F471
:102B1000808191810296840F951FE90199838883B2
:102B2000828193819B838A83F0E0E0E012968D910D
:102B30009C9113970097B9F52D913C911197CD0178
:102B40000296820F931F20915C0430915D04281738
:102B5000390739F6309751F510925F0410925E04F0
:102B6000B0935D04A0935C04BCCFD383C283408147
:102B70005181840F951FC817D90761F44E5F5F4FCD
:102B800088819981480F591F518340838A819B8195
:102B9000938382832115310509F0B0CFF0935F0450
:102BA000E0935E049ECFFD01DC01C0CF1382128250
:102BB000D7CFB0E0A0E0EFEDF5E10C948F138C01DE
:102BC000009751F4CB010E94B4148C01C801CDB719
:102BD000DEB7E0E10C94AB13FC01E60FF71F9C019C
:102BE00022503109E217F30708F49DC0D901CD91B5
:102BF000DC911197C617D70798F0C530D10530F38F
:102C0000CE0104978617970708F3C61BD70B2297A8
:102C1000C193D1936D937C93CF010E945015D6CF71
:102C20005B01AC1ABD0A4C018C0E9D1EA0915E0486
:102C3000B0915F04512C412CF12CE12C109731F50F
:102C400080915C0490915D048815990509F05CC041
:102C50004616570608F058C0809113019091140150
:102C6000009741F48DB79EB740911701509118011C
:102C7000841B950BE817F90708F055C0F0935D0425
:102C8000E0935C04F90171836083A0CF8D919C91E6
:102C9000119712966C90129713967C901397A81523
:102CA000B90559F56C0142E0C40ED11CCA14DB040D
:102CB00020F1AC014A195B09DA011296159780F0F0
:102CC0006282738251834083D9016D937C93E114B6
:102CD000F10471F0D7011396FC93EE93129776CF1F
:102CE00022968C0F9D1FF90191838083F301EFCF12
:102CF000F0935F04E0935E0469CF4816590608F428
:102D00002C017D01D3019ACFCB010E94B4147C0128
:102D1000009749F0AE01B8010E949B16C8010E94BD
:102D20005015870153CF10E000E050CF81E090E0D4
:102D3000F8940C94B416FB01DC0102C001900D92D2
:102D400041505040D8F70895FB01DC018D9101906E
:102D500080190110D9F3990B0895FB01DC01019052
:102D60000D920020E1F70895F894FFCF090A0B0EA9
:102D70000F101131323334353637383923302A00C9
:102D800000600480000000400014005400020003B2
:102D90000004000500060000000000D10131015EC2
:102DA000011E028F016D01810100000000DA05ADF6
:102DB000051D068305A6059305840500000000B2E5
:102DC0000731011D06D203000000000103C102907B
:102DD000020D0A0044697374616E63653A20006EE7
:102DE000616E00696E66006F76660020636D005A42
:102DF00069656164205061726B696E672050726F03
:102E00006A6563740057656C636F6D65205A696508
:102E10006164005A6965616420436F756C646E2754
:102E2000742066696E6420525443005A6965616477
:102E30002074686520525443206973206E6F74209B
:102E400052756E6E696E67204C65742773207365CA
:102E500074207468652074696D6500596F757220FF
:102E600042696C6C20416D6F756E742069733A20F5
:102E7000005468616E6B7320466F722056697369E7
:102E8000740054686520506C61636520697320414B
:102E90006C726561647920456D707479005061725F
:102EA0006B20796F75722063617220617400536CBE
:102EB0006F7420004E6F204D6F7265205061726BF1
:042EC000696E6700D0
:107E0000112484B714BE81FFF0D085E080938100F7
:107E100082E08093C00088E18093C10086E0809377
:107E2000C20080E18093C4008EE0C9D0259A86E02C
:107E300020E33CEF91E0309385002093840096BBD3
:107E4000B09BFECF1D9AA8958150A9F7CC24DD24C4
:107E500088248394B5E0AB2EA1E19A2EF3E0BF2EE7
:107E6000A2D0813461F49FD0082FAFD0023811F036
:107E7000013811F484E001C083E08DD089C08234E0
:107E800011F484E103C0853419F485E0A6D080C0E4
:107E9000853579F488D0E82EFF2485D0082F10E0AE
:107EA000102F00270E291F29000F111F8ED06801E7
:107EB0006FC0863521F484E090D080E0DECF843638
:107EC00009F040C070D06FD0082F6DD080E0C81688
:107ED00080E7D80618F4F601B7BEE895C0E0D1E017
:107EE00062D089930C17E1F7F0E0CF16F0E7DF06D8
:107EF00018F0F601B7BEE89568D007B600FCFDCFD4
:107F0000A601A0E0B1E02C9130E011968C91119780
:107F100090E0982F8827822B932B1296FA010C0160
:107F200087BEE89511244E5F5F4FF1E0A038BF0790
:107F300051F7F601A7BEE89507B600FCFDCF97BE46
:107F4000E89526C08437B1F42ED02DD0F82E2BD052
:107F50003CD0F601EF2C8F010F5F1F4F84911BD097
:107F6000EA94F801C1F70894C11CD11CFA94CF0C13
:107F7000D11C0EC0853739F428D08EE10CD085E9AC
:107F80000AD08FE07ACF813511F488E018D01DD067
:107F900080E101D065CF982F8091C00085FFFCCF94
:107FA0009093C60008958091C00087FFFCCF809118
:107FB000C00084FD01C0A8958091C6000895E0E648
:107FC000F0E098E1908380830895EDDF803219F02E
:107FD00088E0F5DFFFCF84E1DECF1F93182FE3DFCA
:107FE0001150E9F7F2DF1F91089580E0E8DFEE27F6
:047FF000FF270994CA
:027FFE00040479
:00000001FF
